{
  "_format": "hh-sol-artifact-1",
  "contractName": "TokenDeployerProxy",
  "sourceName": "contracts/TokenDeployerProxy.sol",
  "abi": [
    {
      "inputs": [
        {
          "internalType": "address",
          "name": "priceFeed_",
          "type": "address"
        },
        {
          "internalType": "address",
          "name": "feeRecipient_",
          "type": "address"
        },
        {
          "internalType": "uint256",
          "name": "creationFeeUsd_",
          "type": "uint256"
        }
      ],
      "stateMutability": "nonpayable",
      "type": "constructor"
    },
    {
      "inputs": [
        {
          "internalType": "uint256",
          "name": "required",
          "type": "uint256"
        },
        {
          "internalType": "uint256",
          "name": "sent",
          "type": "uint256"
        }
      ],
      "name": "InsufficientFee",
      "type": "error"
    },
    {
      "inputs": [],
      "name": "InvalidPrice",
      "type": "error"
    },
    {
      "inputs": [],
      "name": "InvalidPriceFeed",
      "type": "error"
    },
    {
      "inputs": [
        {
          "internalType": "address",
          "name": "owner",
          "type": "address"
        }
      ],
      "name": "OwnableInvalidOwner",
      "type": "error"
    },
    {
      "inputs": [
        {
          "internalType": "address",
          "name": "account",
          "type": "address"
        }
      ],
      "name": "OwnableUnauthorizedAccount",
      "type": "error"
    },
    {
      "inputs": [],
      "name": "PriceFeedStale",
      "type": "error"
    },
    {
      "inputs": [],
      "name": "ZeroAddress",
      "type": "error"
    },
    {
      "anonymous": false,
      "inputs": [
        {
          "indexed": false,
          "internalType": "uint256",
          "name": "oldFeeUsd",
          "type": "uint256"
        },
        {
          "indexed": false,
          "internalType": "uint256",
          "name": "newFeeUsd",
          "type": "uint256"
        }
      ],
      "name": "CreationFeeUpdated",
      "type": "event"
    },
    {
      "anonymous": false,
      "inputs": [
        {
          "indexed": false,
          "internalType": "uint256",
          "name": "newPrice",
          "type": "uint256"
        }
      ],
      "name": "FallbackPriceUpdated",
      "type": "event"
    },
    {
      "anonymous": false,
      "inputs": [
        {
          "indexed": true,
          "internalType": "address",
          "name": "newRecipient",
          "type": "address"
        }
      ],
      "name": "FeeRecipientUpdated",
      "type": "event"
    },
    {
      "anonymous": false,
      "inputs": [
        {
          "indexed": false,
          "internalType": "uint256",
          "name": "newStaleness",
          "type": "uint256"
        }
      ],
      "name": "MaxStalenessUpdated",
      "type": "event"
    },
    {
      "anonymous": false,
      "inputs": [
        {
          "indexed": true,
          "internalType": "address",
          "name": "previousOwner",
          "type": "address"
        },
        {
          "indexed": true,
          "internalType": "address",
          "name": "newOwner",
          "type": "address"
        }
      ],
      "name": "OwnershipTransferred",
      "type": "event"
    },
    {
      "anonymous": false,
      "inputs": [
        {
          "indexed": true,
          "internalType": "address",
          "name": "newFeed",
          "type": "address"
        }
      ],
      "name": "PriceFeedUpdated",
      "type": "event"
    },
    {
      "anonymous": false,
      "inputs": [
        {
          "indexed": true,
          "internalType": "address",
          "name": "relayer",
          "type": "address"
        },
        {
          "indexed": false,
          "internalType": "bool",
          "name": "status",
          "type": "bool"
        }
      ],
      "name": "RelayerStatusUpdated",
      "type": "event"
    },
    {
      "anonymous": false,
      "inputs": [
        {
          "indexed": true,
          "internalType": "address",
          "name": "deployer",
          "type": "address"
        },
        {
          "indexed": true,
          "internalType": "address",
          "name": "tokenAddress",
          "type": "address"
        },
        {
          "indexed": false,
          "internalType": "uint256",
          "name": "fee",
          "type": "uint256"
        }
      ],
      "name": "TokenDeployed",
      "type": "event"
    },
    {
      "inputs": [],
      "name": "creationFeeUsd",
      "outputs": [
        {
          "internalType": "uint256",
          "name": "",
          "type": "uint256"
        }
      ],
      "stateMutability": "view",
      "type": "function"
    },
    {
      "inputs": [
        {
          "internalType": "bytes",
          "name": "bytecode",
          "type": "bytes"
        }
      ],
      "name": "deployToken",
      "outputs": [
        {
          "internalType": "address",
          "name": "tokenAddress",
          "type": "address"
        }
      ],
      "stateMutability": "payable",
      "type": "function"
    },
    {
      "inputs": [],
      "name": "fallbackNativePrice",
      "outputs": [
        {
          "internalType": "uint256",
          "name": "",
          "type": "uint256"
        }
      ],
      "stateMutability": "view",
      "type": "function"
    },
    {
      "inputs": [],
      "name": "feeRecipient",
      "outputs": [
        {
          "internalType": "address",
          "name": "",
          "type": "address"
        }
      ],
      "stateMutability": "view",
      "type": "function"
    },
    {
      "inputs": [],
      "name": "getCreationFee",
      "outputs": [
        {
          "internalType": "uint256",
          "name": "",
          "type": "uint256"
        }
      ],
      "stateMutability": "view",
      "type": "function"
    },
    {
      "inputs": [],
      "name": "getCreationFeeInNative",
      "outputs": [
        {
          "internalType": "uint256",
          "name": "fee",
          "type": "uint256"
        },
        {
          "internalType": "uint256",
          "name": "feeUsd",
          "type": "uint256"
        }
      ],
      "stateMutability": "view",
      "type": "function"
    },
    {
      "inputs": [],
      "name": "getNativePrice",
      "outputs": [
        {
          "internalType": "uint256",
          "name": "price",
          "type": "uint256"
        }
      ],
      "stateMutability": "view",
      "type": "function"
    },
    {
      "inputs": [
        {
          "internalType": "uint256",
          "name": "usdAmount",
          "type": "uint256"
        }
      ],
      "name": "getRequiredNative",
      "outputs": [
        {
          "internalType": "uint256",
          "name": "nativeAmount",
          "type": "uint256"
        }
      ],
      "stateMutability": "view",
      "type": "function"
    },
    {
      "inputs": [
        {
          "internalType": "address",
          "name": "",
          "type": "address"
        }
      ],
      "name": "isAuthorizedRelayer",
      "outputs": [
        {
          "internalType": "bool",
          "name": "",
          "type": "bool"
        }
      ],
      "stateMutability": "view",
      "type": "function"
    },
    {
      "inputs": [],
      "name": "maxStaleness",
      "outputs": [
        {
          "internalType": "uint256",
          "name": "",
          "type": "uint256"
        }
      ],
      "stateMutability": "view",
      "type": "function"
    },
    {
      "inputs": [],
      "name": "nativePriceFeed",
      "outputs": [
        {
          "internalType": "contract AggregatorV3Interface",
          "name": "",
          "type": "address"
        }
      ],
      "stateMutability": "view",
      "type": "function"
    },
    {
      "inputs": [],
      "name": "owner",
      "outputs": [
        {
          "internalType": "address",
          "name": "",
          "type": "address"
        }
      ],
      "stateMutability": "view",
      "type": "function"
    },
    {
      "inputs": [],
      "name": "renounceOwnership",
      "outputs": [],
      "stateMutability": "nonpayable",
      "type": "function"
    },
    {
      "inputs": [
        {
          "internalType": "uint256",
          "name": "newFeeUsd",
          "type": "uint256"
        }
      ],
      "name": "setCreationFeeUsd",
      "outputs": [],
      "stateMutability": "nonpayable",
      "type": "function"
    },
    {
      "inputs": [
        {
          "internalType": "uint256",
          "name": "newPrice",
          "type": "uint256"
        }
      ],
      "name": "setFallbackPrice",
      "outputs": [],
      "stateMutability": "nonpayable",
      "type": "function"
    },
    {
      "inputs": [
        {
          "internalType": "address",
          "name": "newRecipient",
          "type": "address"
        }
      ],
      "name": "setFeeRecipient",
      "outputs": [],
      "stateMutability": "nonpayable",
      "type": "function"
    },
    {
      "inputs": [
        {
          "internalType": "uint256",
          "name": "newStaleness",
          "type": "uint256"
        }
      ],
      "name": "setMaxStaleness",
      "outputs": [],
      "stateMutability": "nonpayable",
      "type": "function"
    },
    {
      "inputs": [
        {
          "internalType": "address",
          "name": "newFeed",
          "type": "address"
        }
      ],
      "name": "setPriceFeed",
      "outputs": [],
      "stateMutability": "nonpayable",
      "type": "function"
    },
    {
      "inputs": [
        {
          "internalType": "address",
          "name": "relayer",
          "type": "address"
        },
        {
          "internalType": "bool",
          "name": "status",
          "type": "bool"
        }
      ],
      "name": "setRelayerStatus",
      "outputs": [],
      "stateMutability": "nonpayable",
      "type": "function"
    },
    {
      "inputs": [
        {
          "internalType": "address",
          "name": "newOwner",
          "type": "address"
        }
      ],
      "name": "transferOwnership",
      "outputs": [],
      "stateMutability": "nonpayable",
      "type": "function"
    },
    {
      "inputs": [],
      "name": "withdraw",
      "outputs": [],
      "stateMutability": "nonpayable",
      "type": "function"
    },
    {
      "stateMutability": "payable",
      "type": "receive"
    }
  ],
  "bytecode": "0x60803461018757601f610e1e38819003918201601f19168301916001600160401b0383118484101761018c5780849260609460405283398101031261018757610047816101a2565b6040610055602084016101a2565b9201519133156101715760008054336001600160a01b0319821681178355604051949290916001600160a01b0316907f8be0079c531659141344cd1fd0a4f28419497f9722a3daafe3b4186f6b6457e09080a3610e106003556001600160a01b031691821561013a57506001600160a01b03169081156101015760018060a01b0319600154161760015560018060a01b03196002541617600255600655604051610c6790816101b78239f35b60405162461bcd60e51b8152602060048201526011602482015270125b9d985b1a59081c9958da5c1a595b9d607a1b6044820152606490fd5b62461bcd60e51b8152602060048201526012602482015271125b9d985b1a59081c1c9a58d9481999595960721b6044820152606490fd5b631e4fbdf760e01b600052600060045260246000fd5b600080fd5b634e487b7160e01b600052604160045260246000fd5b51906001600160a01b03821682036101875756fe6080604052600436101561001b575b361561001957600080fd5b005b60003560e01c8063100bc9e11461016b57806317430c9e146101665780632e7195a5146101615780633c6467ac1461015c5780633ccfd60b146101575780633cd6ee6d146101525780633df43eed1461014d5780634690484014610148578063715018a614610143578063724e78da1461013e578063860158341461013957806387cf4696146101345780638da5cb5b1461012f578063971dca7e1461012a578063ae1a571b14610125578063ce4391df14610120578063d67dbcd71461011b578063db07b68e14610116578063e0f324d914610111578063e74b981b1461010c5763f2fde38b0361000e5761074b565b6106e2565b6106a3565b610685565b61066d565b610627565b610609565b6105db565b6105b2565b610594565b610515565b61049b565b61042c565b610403565b6103da565b6102d4565b61025d565b61023f565b6101f0565b6101cd565b610187565b60209060031901126101825760043590565b600080fd5b34610182577f64a4703c7c168827058126cbd2e71d8d0f026afa821e7dff1480173dffdd389560206101b836610170565b6101c0610ac1565b80600355604051908152a1005b346101825760003660031901126101825760206101e86108d1565b604051908152f35b34610182576101fe36610170565b610206610ac1565b60065460408051918252602082018390527f5de302eeb1c80d4fb0c0953b692353f09ddf431411b8eb2034d5e8576956191291a1600655005b34610182576000366003190112610182576020600654604051908152f35b3461018257600036600319011261018257610276610ac1565b6000805481908190819047906001600160a01b03165af16102956109f0565b501561029d57005b60405162461bcd60e51b815260206004820152600f60248201526e15da5d1a191c985dc819985a5b1959608a1b6044820152606490fd5b60203660031901126101825760043567ffffffffffffffff811161018257366023820112156101825780600401359067ffffffffffffffff82116101825736602483830101116101825781156103a4576103a091610333600654610b68565b91816024604051920182376000f0906001600160a01b03821690610358821515610a30565b60405190815233907ff1d58912d8d6d39cd9fee0f074ee57836907d09dddb0ce7706b7c7a0ddc15d5090602090a36040516001600160a01b0390911681529081906020820190565b0390f35b60405162461bcd60e51b815260206004820152600e60248201526d456d7074792062797465636f646560901b6044820152606490fd5b34610182576000366003190112610182576001546040516001600160a01b039091168152602090f35b34610182576000366003190112610182576002546040516001600160a01b039091168152602090f35b3461018257600036600319011261018257610445610ac1565b600080546001600160a01b0319811682556001600160a01b03167f8be0079c531659141344cd1fd0a4f28419497f9722a3daafe3b4186f6b6457e08280a3005b600435906001600160a01b038216820361018257565b34610182576020366003190112610182576104b4610485565b6104bc610ac1565b6001600160a01b0316801561050457600180546001600160a01b031916821790557fe5b20b8497e4f3e2435ef9c20e2e26b47497ee13745ce1c681ad6640653119e6600080a2005b63d92e233d60e01b60005260046000fd5b346101825760403660031901126101825761052e610485565b602435908115158092036101825760207f3bb38cecda6fe53da9a919185b2ba2908d839e143f815aa249e3b1e061586e8091610568610ac1565b60018060a01b0316928360005260058252604060002060ff1981541660ff8316179055604051908152a2005b34610182576000366003190112610182576020600354604051908152f35b34610182576000366003190112610182576000546040516001600160a01b039091168152602090f35b34610182576000366003190112610182576006546105f881610a70565b604080519182526020820192909252f35b34610182576000366003190112610182576020600454604051908152f35b34610182577fef016671b6ed7d62b1a817ff4483fb60a62a693ae9fa4a13a778963dd57d6090602061065836610170565b610660610ac1565b80600455604051908152a1005b346101825760206101e861068036610170565b610a70565b346101825760003660031901126101825760206101e8600654610a70565b34610182576020366003190112610182576001600160a01b036106c4610485565b166000526005602052602060ff604060002054166040519015158152f35b34610182576020366003190112610182576106fb610485565b610703610ac1565b6001600160a01b0316801561050457600280546001600160a01b031916821790557f7a7b5a0a132f9e0581eb8527f66eae9ee89c2a3e79d4ac7e41a1f1f4d48a7fc2600080a2005b3461018257602036600319011261018257610764610485565b61076c610ac1565b6001600160a01b031680156107be57600080546001600160a01b03198116831782556001600160a01b0316907f8be0079c531659141344cd1fd0a4f28419497f9722a3daafe3b4186f6b6457e09080a3005b631e4fbdf760e01b600052600060045260246000fd5b156107db57565b60405162461bcd60e51b815260206004820152601960248201527f4e6f2070726963652066656564206f722066616c6c6261636b000000000000006044820152606490fd5b634e487b7160e01b600052604160045260246000fd5b90601f8019910116810190811067ffffffffffffffff82111761085857604052565b610820565b519069ffffffffffffffffffff8216820361018257565b908160a0910312610182576108888161085d565b916020820151916040810151916108a660806060840151930161085d565b90565b634e487b7160e01b600052601160045260246000fd5b919082039182116108cc57565b6108a9565b6001546108ee906001600160a01b03165b6001600160a01b031690565b6001600160a01b038116156109e15760a060049160405192838092633fabe5a360e21b82525afa806000926000926109a8575b50610941575050600454806108a6576352cc3f7d60e01b60005260046000fd5b600082131561098e57600354801515918261097a575b50506109605790565b50600454806108a65763216cc5f560e01b60005260046000fd5b610986919250426108bf565b113880610957565b5050600454806108a65762bfc92160e01b60005260046000fd5b9092506109cd915060a03d60a0116109da575b6109c58183610836565b810190610874565b5093925050919038610921565b503d6109bb565b506004546108a68115156107d4565b3d15610a2b573d9067ffffffffffffffff82116108585760405191610a1f601f8201601f191660200184610836565b82523d6000602084013e565b606090565b15610a3757565b60405162461bcd60e51b815260206004820152601160248201527011195c1b1bde5b595b9d0819985a5b1959607a1b6044820152606490fd5b8015610abb57610a7e6108d1565b90670de0b6b3a76400008102908104670de0b6b3a7640000036108cc578115610aa5570490565b634e487b7160e01b600052601260045260246000fd5b50600090565b6000546001600160a01b03163303610ad557565b63118cdaa760e01b6000523360045260246000fd5b15610af157565b60405162461bcd60e51b8152602060048201526013602482015272119959481d1c985b9cd9995c8819985a5b1959606a1b6044820152606490fd5b15610b3357565b60405162461bcd60e51b815260206004820152600d60248201526c1499599d5b990819985a5b1959609a1b6044820152606490fd5b8015610abb573360009081526005602052604090205460ff16610abb57610b8e90610a70565b803410610c195780151580610c05575b610bd0575b610bad81346108bf565b80610bb6575090565b60008080806108a694335af1610bca6109f0565b50610b2c565b610c00600080808085610bf06108e26108e260025460018060a01b031690565b5af1610bfa6109f0565b50610aea565b610ba3565b506002546001600160a01b03161515610b9e565b63a458261b60e01b6000526004523460245260446000fdfea26469706673582212206110525e55200353d25ff04c86127055a42d392417bcb3de55bb20870c1d8c4d64736f6c63430008210033",
  "linkReferences": {},
  "deployedLinkReferences": {}
}